{
  "address": "0x5098599d164dfecc826fff38c7ca29de6ae8fd4e",
  "abi": [
    {
      "inputs": [
        {
          "internalType": "address",
          "name": "tokenAddr",
          "type": "address"
        }
      ],
      "stateMutability": "nonpayable",
      "type": "constructor"
    },
    {
      "inputs": [],
      "name": "DexAlreadyInitialized",
      "type": "error"
    },
    {
      "inputs": [
        {
          "internalType": "address",
          "name": "to",
          "type": "address"
        },
        {
          "internalType": "uint256",
          "name": "amount",
          "type": "uint256"
        }
      ],
      "name": "EthTransferFailed",
      "type": "error"
    },
    {
      "inputs": [
        {
          "internalType": "uint256",
          "name": "available",
          "type": "uint256"
        },
        {
          "internalType": "uint256",
          "name": "required",
          "type": "uint256"
        }
      ],
      "name": "InsufficientLiquidity",
      "type": "error"
    },
    {
      "inputs": [
        {
          "internalType": "uint256",
          "name": "available",
          "type": "uint256"
        },
        {
          "internalType": "uint256",
          "name": "required",
          "type": "uint256"
        }
      ],
      "name": "InsufficientTokenAllowance",
      "type": "error"
    },
    {
      "inputs": [
        {
          "internalType": "uint256",
          "name": "available",
          "type": "uint256"
        },
        {
          "internalType": "uint256",
          "name": "required",
          "type": "uint256"
        }
      ],
      "name": "InsufficientTokenBalance",
      "type": "error"
    },
    {
      "inputs": [],
      "name": "InvalidEthAmount",
      "type": "error"
    },
    {
      "inputs": [],
      "name": "InvalidTokenAmount",
      "type": "error"
    },
    {
      "inputs": [],
      "name": "TokenTransferFailed",
      "type": "error"
    },
    {
      "anonymous": false,
      "inputs": [
        {
          "indexed": false,
          "internalType": "address",
          "name": "swapper",
          "type": "address"
        },
        {
          "indexed": false,
          "internalType": "uint256",
          "name": "tokenOutput",
          "type": "uint256"
        },
        {
          "indexed": false,
          "internalType": "uint256",
          "name": "ethInput",
          "type": "uint256"
        }
      ],
      "name": "EthToTokenSwap",
      "type": "event"
    },
    {
      "anonymous": false,
      "inputs": [
        {
          "indexed": false,
          "internalType": "address",
          "name": "liquidityProvider",
          "type": "address"
        },
        {
          "indexed": false,
          "internalType": "uint256",
          "name": "liquidityMinted",
          "type": "uint256"
        },
        {
          "indexed": false,
          "internalType": "uint256",
          "name": "ethInput",
          "type": "uint256"
        },
        {
          "indexed": false,
          "internalType": "uint256",
          "name": "tokensInput",
          "type": "uint256"
        }
      ],
      "name": "LiquidityProvided",
      "type": "event"
    },
    {
      "anonymous": false,
      "inputs": [
        {
          "indexed": false,
          "internalType": "address",
          "name": "liquidityRemover",
          "type": "address"
        },
        {
          "indexed": false,
          "internalType": "uint256",
          "name": "liquidityWithdrawn",
          "type": "uint256"
        },
        {
          "indexed": false,
          "internalType": "uint256",
          "name": "tokensOutput",
          "type": "uint256"
        },
        {
          "indexed": false,
          "internalType": "uint256",
          "name": "ethOutput",
          "type": "uint256"
        }
      ],
      "name": "LiquidityRemoved",
      "type": "event"
    },
    {
      "anonymous": false,
      "inputs": [
        {
          "indexed": false,
          "internalType": "address",
          "name": "swapper",
          "type": "address"
        },
        {
          "indexed": false,
          "internalType": "uint256",
          "name": "tokensInput",
          "type": "uint256"
        },
        {
          "indexed": false,
          "internalType": "uint256",
          "name": "ethOutput",
          "type": "uint256"
        }
      ],
      "name": "TokenToEthSwap",
      "type": "event"
    },
    {
      "inputs": [],
      "name": "deposit",
      "outputs": [
        {
          "internalType": "uint256",
          "name": "tokensDeposited",
          "type": "uint256"
        }
      ],
      "stateMutability": "payable",
      "type": "function"
    },
    {
      "inputs": [],
      "name": "ethToToken",
      "outputs": [
        {
          "internalType": "uint256",
          "name": "tokenOutput",
          "type": "uint256"
        }
      ],
      "stateMutability": "payable",
      "type": "function"
    },
    {
      "inputs": [
        {
          "internalType": "address",
          "name": "lp",
          "type": "address"
        }
      ],
      "name": "getLiquidity",
      "outputs": [
        {
          "internalType": "uint256",
          "name": "lpLiquidity",
          "type": "uint256"
        }
      ],
      "stateMutability": "view",
      "type": "function"
    },
    {
      "inputs": [
        {
          "internalType": "uint256",
          "name": "tokens",
          "type": "uint256"
        }
      ],
      "name": "init",
      "outputs": [
        {
          "internalType": "uint256",
          "name": "initialLiquidity",
          "type": "uint256"
        }
      ],
      "stateMutability": "payable",
      "type": "function"
    },
    {
      "inputs": [
        {
          "internalType": "address",
          "name": "",
          "type": "address"
        }
      ],
      "name": "liquidity",
      "outputs": [
        {
          "internalType": "uint256",
          "name": "",
          "type": "uint256"
        }
      ],
      "stateMutability": "view",
      "type": "function"
    },
    {
      "inputs": [
        {
          "internalType": "uint256",
          "name": "xInput",
          "type": "uint256"
        },
        {
          "internalType": "uint256",
          "name": "xReserves",
          "type": "uint256"
        },
        {
          "internalType": "uint256",
          "name": "yReserves",
          "type": "uint256"
        }
      ],
      "name": "price",
      "outputs": [
        {
          "internalType": "uint256",
          "name": "yOutput",
          "type": "uint256"
        }
      ],
      "stateMutability": "pure",
      "type": "function"
    },
    {
      "inputs": [],
      "name": "token",
      "outputs": [
        {
          "internalType": "contract IERC20",
          "name": "",
          "type": "address"
        }
      ],
      "stateMutability": "view",
      "type": "function"
    },
    {
      "inputs": [
        {
          "internalType": "uint256",
          "name": "tokenInput",
          "type": "uint256"
        }
      ],
      "name": "tokenToEth",
      "outputs": [
        {
          "internalType": "uint256",
          "name": "ethOutput",
          "type": "uint256"
        }
      ],
      "stateMutability": "nonpayable",
      "type": "function"
    },
    {
      "inputs": [],
      "name": "totalLiquidity",
      "outputs": [
        {
          "internalType": "uint256",
          "name": "",
          "type": "uint256"
        }
      ],
      "stateMutability": "view",
      "type": "function"
    },
    {
      "inputs": [
        {
          "internalType": "uint256",
          "name": "amount",
          "type": "uint256"
        }
      ],
      "name": "withdraw",
      "outputs": [
        {
          "internalType": "uint256",
          "name": "ethAmount",
          "type": "uint256"
        },
        {
          "internalType": "uint256",
          "name": "tokenAmount",
          "type": "uint256"
        }
      ],
      "stateMutability": "nonpayable",
      "type": "function"
    }
  ],
  "contractName": "DEX",
  "sourceName": "contracts/DEX.sol",
  "bytecode": "0x60a060405234801561000f575f80fd5b5060405161110338038061110383398101604081905261002e9161003f565b6001600160a01b031660805261006c565b5f6020828403121561004f575f80fd5b81516001600160a01b0381168114610065575f80fd5b9392505050565b6080516110246100df5f395f81816101bf0152818161029f015281816104100152818161052d015281816105e80152818161069d01528181610740015281816108d60152818161096b01528181610aa201528181610b7c01528181610c2a01528181610cdd0152610df501526110245ff3fe60806040526004361061008f575f3560e01c8063a747b93b11610057578063a747b93b14610134578063b7b0422d14610168578063b8c876b11461017b578063d0e30db0146101a6578063fc0c546a146101ae575f80fd5b806315770f92146100935780632071a9f4146100ba5780632e1a7d4d146100d957806370b2a30f1461010d578063789770f41461012c575b5f80fd5b34801561009e575f80fd5b506100a75f5481565b6040519081526020015b60405180910390f35b3480156100c5575f80fd5b506100a76100d4366004610ed5565b6101f9565b3480156100e4575f80fd5b506100f86100f3366004610efe565b610245565b604080519283526020830191909152016100b1565b348015610118575f80fd5b506100a7610127366004610efe565b6104f5565b6100a7610888565b34801561013f575f80fd5b506100a761014e366004610f15565b6001600160a01b03165f9081526001602052604090205490565b6100a7610176366004610efe565b610a3e565b348015610186575f80fd5b506100a7610195366004610f15565b60016020525f908152604090205481565b6100a7610b2e565b3480156101b9575f80fd5b506101e17f000000000000000000000000000000000000000000000000000000000000000081565b6040516001600160a01b0390911681526020016100b1565b5f80610207856103e5610f56565b90505f6102148483610f56565b90505f82610224876103e8610f56565b61022e9190610f73565b905061023a8183610f86565b979650505050505050565b335f908152600160205260408120548190838110156102865760405163a17e11d560e01b815260048101829052602481018590526044015b60405180910390fd5b6040516370a0823160e01b815230600482015247905f907f00000000000000000000000000000000000000000000000000000000000000006001600160a01b0316906370a0823190602401602060405180830381865afa1580156102ec573d5f803e3d5ffd5b505050506040513d601f19601f820116820180604052508101906103109190610fa5565b90505f805483886103219190610f56565b61032b9190610f86565b90505f8054838961033c9190610f56565b6103469190610f86565b335f90815260016020526040812080549293508a92909190610369908490610fbc565b92505081905550875f808282546103809190610fbc565b90915550506040515f90339084908381818185875af1925050503d805f81146103c4576040519150601f19603f3d011682016040523d82523d5f602084013e6103c9565b606091505b50509050806103f457604051636f54afdd60e11b81523360048201526024810184905260440161027d565b60405163a9059cbb60e01b8152336004820152602481018390527f00000000000000000000000000000000000000000000000000000000000000006001600160a01b03169063a9059cbb906044016020604051808303815f875af115801561045e573d5f803e3d5ffd5b505050506040513d601f19601f820116820180604052508101906104829190610fcf565b61049f5760405163022e258160e11b815260040160405180910390fd5b60408051338152602081018b9052908101839052606081018490527f1dc8bb69df2b8e91fbdcbfcf93d951b3f0000f085a95fe3f7946d6161439245d9060800160405180910390a1509097909650945050505050565b5f815f0361051657604051632160733960e01b815260040160405180910390fd5b6040516370a0823160e01b81523360048201525f907f00000000000000000000000000000000000000000000000000000000000000006001600160a01b0316906370a0823190602401602060405180830381865afa15801561057a573d5f803e3d5ffd5b505050506040513d601f19601f8201168201806040525081019061059e9190610fa5565b9050828110156105cb5760405163142e249f60e31b8152600481018290526024810184905260440161027d565b604051636eb1769f60e11b81523360048201523060248201525f907f00000000000000000000000000000000000000000000000000000000000000006001600160a01b03169063dd62ed3e90604401602060405180830381865afa158015610635573d5f803e3d5ffd5b505050506040513d601f19601f820116820180604052508101906106599190610fa5565b9050838110156106865760405163dc98d7bb60e01b8152600481018290526024810185905260440161027d565b6040516370a0823160e01b81523060048201525f907f00000000000000000000000000000000000000000000000000000000000000006001600160a01b0316906370a0823190602401602060405180830381865afa1580156106ea573d5f803e3d5ffd5b505050506040513d601f19601f8201168201806040525081019061070e9190610fa5565b905061071b8582476101f9565b6040516323b872dd60e01b8152336004820152306024820152604481018790529094507f00000000000000000000000000000000000000000000000000000000000000006001600160a01b0316906323b872dd906064016020604051808303815f875af115801561078e573d5f803e3d5ffd5b505050506040513d601f19601f820116820180604052508101906107b29190610fcf565b6107cf5760405163022e258160e11b815260040160405180910390fd5b6040515f90339086908381818185875af1925050503d805f811461080e576040519150601f19603f3d011682016040523d82523d5f602084013e610813565b606091505b505090508061083e57604051636f54afdd60e11b81523360048201526024810186905260440161027d565b60408051338152602081018890529081018690527f472303b1e7ca7d00fb77f255c0a8c577f9ca4264c0306aaed3ff18e831523a6d9060600160405180910390a150505050919050565b5f345f036108a957604051630772327b60e01b815260040160405180910390fd5b5f6108b43447610fbc565b6040516370a0823160e01b81523060048201529091505f906001600160a01b037f000000000000000000000000000000000000000000000000000000000000000016906370a0823190602401602060405180830381865afa15801561091b573d5f803e3d5ffd5b505050506040513d601f19601f8201168201806040525081019061093f9190610fa5565b905061094c3483836101f9565b60405163a9059cbb60e01b8152336004820152602481018290529093507f00000000000000000000000000000000000000000000000000000000000000006001600160a01b03169063a9059cbb906044016020604051808303815f875af11580156109b9573d5f803e3d5ffd5b505050506040513d601f19601f820116820180604052508101906109dd9190610fcf565b6109fa5760405163022e258160e11b815260040160405180910390fd5b6040805133815260208101859052348183015290517f6d4870e9281c01ea54a4420c8684ac713b77f0c590b40c4b1fbf4c6ba892ccea9181900360600190a1505090565b5f805415610a5f57604051635d07b14360e01b815260040160405180910390fd5b50475f81815533808252600160205260409182902083905590516323b872dd60e01b81526004810191909152306024820152604481018390526001600160a01b037f000000000000000000000000000000000000000000000000000000000000000016906323b872dd906064016020604051808303815f875af1158015610ae8573d5f803e3d5ffd5b505050506040513d601f19601f82011682018060405250810190610b0c9190610fcf565b610b295760405163022e258160e11b815260040160405180910390fd5b919050565b5f345f03610b4f57604051630772327b60e01b815260040160405180910390fd5b5f610b5a3447610fbc565b6040516370a0823160e01b81523060048201529091505f906001600160a01b037f000000000000000000000000000000000000000000000000000000000000000016906370a0823190602401602060405180830381865afa158015610bc1573d5f803e3d5ffd5b505050506040513d601f19601f82011682018060405250810190610be59190610fa5565b90505f82610bf38334610f56565b610bfd9190610f86565b610c08906001610f73565b6040516370a0823160e01b81523360048201529091505f906001600160a01b037f000000000000000000000000000000000000000000000000000000000000000016906370a0823190602401602060405180830381865afa158015610c6f573d5f803e3d5ffd5b505050506040513d601f19601f82011682018060405250810190610c939190610fa5565b905081811015610cc05760405163142e249f60e31b8152600481018290526024810183905260440161027d565b604051636eb1769f60e11b81523360048201523060248201525f907f00000000000000000000000000000000000000000000000000000000000000006001600160a01b03169063dd62ed3e90604401602060405180830381865afa158015610d2a573d5f803e3d5ffd5b505050506040513d601f19601f82011682018060405250810190610d4e9190610fa5565b905082811015610d7b5760405163dc98d7bb60e01b8152600481018290526024810184905260440161027d565b5f855f5434610d8a9190610f56565b610d949190610f86565b335f90815260016020526040812080549293508392909190610db7908490610f73565b92505081905550805f80828254610dce9190610f73565b90915550506040516323b872dd60e01b8152336004820152306024820152604481018590527f00000000000000000000000000000000000000000000000000000000000000006001600160a01b0316906323b872dd906064016020604051808303815f875af1158015610e43573d5f803e3d5ffd5b505050506040513d601f19601f82011682018060405250810190610e679190610fcf565b610e845760405163022e258160e11b815260040160405180910390fd5b604080513381526020810183905234818301526060810186905290517f3bca7014f4c0ccc8016338c79f4c00e82068dbadaf4f01ca5449040fdd39f5009181900360800190a1509195945050505050565b5f805f60608486031215610ee7575f80fd5b505081359360208301359350604090920135919050565b5f60208284031215610f0e575f80fd5b5035919050565b5f60208284031215610f25575f80fd5b81356001600160a01b0381168114610f3b575f80fd5b9392505050565b634e487b7160e01b5f52601160045260245ffd5b8082028115828204841417610f6d57610f6d610f42565b92915050565b80820180821115610f6d57610f6d610f42565b5f82610fa057634e487b7160e01b5f52601260045260245ffd5b500490565b5f60208284031215610fb5575f80fd5b5051919050565b81810381811115610f6d57610f6d610f42565b5f60208284031215610fdf575f80fd5b81518015158114610f3b575f80fdfea26469706673582212201204921ce89fd5210bf5873c78bd3470b53e19926ef66e7a058cfccd3204e8b764736f6c63430008140033",
  "linkReferences": {},
  "deployedLinkReferences": {},
  "immutableReferences": {
    "845": [
      {
        "length": 32,
        "start": 447
      },
      {
        "length": 32,
        "start": 671
      },
      {
        "length": 32,
        "start": 1040
      },
      {
        "length": 32,
        "start": 1325
      },
      {
        "length": 32,
        "start": 1512
      },
      {
        "length": 32,
        "start": 1693
      },
      {
        "length": 32,
        "start": 1856
      },
      {
        "length": 32,
        "start": 2262
      },
      {
        "length": 32,
        "start": 2411
      },
      {
        "length": 32,
        "start": 2722
      },
      {
        "length": 32,
        "start": 2940
      },
      {
        "length": 32,
        "start": 3114
      },
      {
        "length": 32,
        "start": 3293
      },
      {
        "length": 32,
        "start": 3573
      }
    ]
  },
  "inputSourceName": "project/contracts/DEX.sol",
  "devdoc": {
    "kind": "dev",
    "methods": {},
    "version": 1
  },
  "evm": {
    "gasEstimates": {
      "creation": {
        "codeDepositCost": "826400",
        "executionCost": "infinite",
        "totalCost": "infinite"
      },
      "external": {
        "deposit()": "infinite",
        "ethToToken()": "infinite",
        "getLiquidity(address)": "2488",
        "init(uint256)": "infinite",
        "liquidity(address)": "2514",
        "price(uint256,uint256,uint256)": "infinite",
        "token()": "infinite",
        "tokenToEth(uint256)": "infinite",
        "totalLiquidity()": "2283",
        "withdraw(uint256)": "infinite"
      }
    }
  },
  "storageLayout": {
    "storage": [
      {
        "astId": 847,
        "contract": "project/contracts/DEX.sol:DEX",
        "label": "totalLiquidity",
        "offset": 0,
        "slot": "0",
        "type": "t_uint256"
      },
      {
        "astId": 851,
        "contract": "project/contracts/DEX.sol:DEX",
        "label": "liquidity",
        "offset": 0,
        "slot": "1",
        "type": "t_mapping(t_address,t_uint256)"
      }
    ],
    "types": {
      "t_address": {
        "encoding": "inplace",
        "label": "address",
        "numberOfBytes": "20"
      },
      "t_mapping(t_address,t_uint256)": {
        "encoding": "mapping",
        "key": "t_address",
        "label": "mapping(address => uint256)",
        "numberOfBytes": "32",
        "value": "t_uint256"
      },
      "t_uint256": {
        "encoding": "inplace",
        "label": "uint256",
        "numberOfBytes": "32"
      }
    }
  },
  "userdoc": {
    "errors": {
      "DexAlreadyInitialized()": [
        {
          "notice": "Errors //////"
        }
      ]
    },
    "events": {
      "EthToTokenSwap(address,uint256,uint256)": {
        "notice": "Events /////"
      }
    },
    "kind": "user",
    "methods": {
      "constructor": {
        "notice": "Constructor ///"
      },
      "init(uint256)": {
        "notice": "Functions /////"
      },
      "token()": {
        "notice": "State Variables //"
      }
    },
    "version": 1
  },
  "argsData": "0x0000000000000000000000002b0d8c94122acf36e80990ea544a2dbeb4cae831",
  "transaction": {
    "hash": "0x898665820e00c35061703025038ae30c14a33c6ae45b31fa3addcf5f29fb2e7b",
    "nonce": "0x19",
    "origin": "0x19cca2cf6030461c2af6cae5ee063da9493ddc10"
  }
}